:100000000C9472000C9494000C9494000C94940042
:100010000C9494000C9494000C9494000C94940010
:100020000C9494000C9494000C9494000C94940000
:100030000C9494000C9494000C9494000C949400F0
:100040000C9494000C9494000C9494000C949400E0
:100050000C9494000C9494000C9494000C949400D0
:100060000C9494000C9494000C9494000C94010152
:100070000C9494000C9494000C9494000C949400B0
:100080000C9494000C9494000C9494000C949400A0
:100090000C9494000C9494000C9494000C94940090
:1000A0000C9494000C9494000C9494000C94940080
:1000B0000C9494000C9494000C9494000C94940070
:1000C0000C9494000C9494000C9494000C94940060
:1000D0000C9494000C9494000C9494000C94940050
:1000E0000C94940011241FBECFEFD1E2DEBFCDBF30
:1000F00000E00CBF12E0A0E0B2E0E2EEF2E000E0CF
:100100000BBF02C007900D92A633B107D9F71BBEF3
:1001100012E0A6E3B2E001C01D92A837B107E1F7F3
:100120000E9445010C946F010C9400001092C500D0
:1001300087E08093C400E0ECF0E0808182608083FF
:10014000E1ECF0E08081886080838081806480833E
:1001500008950F931F93CF93DF93182F092FE82F44
:10016000F92FEF0109900020E9F72197CE1BDF0B53
:100170002FE330E0A0913602B0913702A85CBD4F6A
:10018000FD0101900020E9F73197EA1BFB0BC90143
:100190008E1B9F0B8C179D0768F3F89460913602B5
:1001A00070913702685C7D4F88E392E00E9468019D
:1001B00088E392E0612F702F0E945D011092370258
:1001C000109236028091330290913402009799F098
:1001D00010923402109233028091360290913702CD
:1001E000FC01E85CFD4F20810196909337028093DB
:1001F00036022093C6007894DF91CF911F910F9122
:1002000008951F920F920FB60F920BB60F92112402
:100210002F938F939F93EF93FF93E0913602F0918A
:100220003702E85CFD4F2081222369F410923802E6
:10023000109237021092360281E090E090933402DF
:100240008093330216C02A3049F4E0913602F091CF
:100250003702E85CFD4F8DE0808309C08091360253
:100260009091370201969093370280933602209343
:10027000C600FF91EF919F918F912F910F900BBE30
:100280000F900FBE0F901F9018950E9496007894C3
:10029000CAE0D0E080E092E00E94A9008DE092E008
:1002A0000E94A9008BE192E00E94A900219791F79A
:1002B0008AE292E00E94A900FFCFFB01DC010D90D1
:1002C0000020E9F7119701900D920020E1F70895C1
:1002D000FB01DC0101900D920020E1F70895F894F4
:0202E000FFCF4E
:1002E20049204C6F766520796F752E0A00596F751B
:1002F200206C6F7665206D652E0A004865206C6F54
:10030200766573206865722E0A00456E642021218D
:06031200210A00010000B9
:00000001FF
